:020000040000FA
:0400000080312C28F7
:100008007E1480312E00961A8C1E0D2882316722AC
:1000180080312E0016180C1C14288231C62280311B
:100028000B1F2A282E00191A0F1E212820004B0802
:100038008A004A080A0080312A28991A8F1E2A281D
:10004800200049088A0048080A0080317E1009000B
:1000580080312E28FA01FB01FC01FD0120308400CB
:10006800003085001E30823190227E1020008231BF
:10007800962AF70077088600870116000104031DF9
:100088004828F001F1010800770886008701403F01
:10009800F200413FF3007308803AF40080307402A4
:1000A800031D582831307202031C71287708860016
:1000B8008701403FF200413FF3007308803AF400A3
:1000C80080307402031D6A283430720203187128C4
:1000D8000130F0000030F100080077088600870141
:1000E800403FF200413FF3007308803AF40080304B
:1000F8007402031D81284A307202031C9A2877086B
:1001080086008701403FF200413FF3007308803AC0
:10011800F40080307402031D93284D3072020318D6
:100128009A280230F0000030F100080077088600B5
:100138008701403FF200413FF3007308803AF40022
:1001480080307402031DAA2863307202031CC3287E
:10015800770886008701403FF200413FF3007308AB
:10016800803AF40080307402031DBC2866307202A5
:100178000318C3280330F0000030F10008007708A6
:1001880086008701403FF200413FF3007308803A40
:10019800F40080307402031DD32895307202031CCA
:1001A800EC28770886008701403FF200413FF300C2
:1001B8007308803AF40080307402031DE5289830F3
:1001C80072020318EC280430F0000030F100080037
:1001D800770886008701403FF200413FF30073082B
:1001E800803AF40080307402031DFC28C630720285
:1001F800031C1529770886008701403FF200413F1C
:10020800F3007308803AF40080307402031D0E294D
:10021800CB307202031815290530F0000030F100C8
:1002280008000630F0000030F10008002E00991296
:1002380097302000CD000130CE008231AE228131CE
:100248002E001912ED302000CD000130CE00823191
:10025800A8228131083022009F0090309D00243070
:100268009E0019309B009C01D7302000CD00023041
:10027800CE008231BA228131D0302000CD00023048
:10028800CE008231B4228131D4302000CD0002303A
:10029800CE008231C0222000BA01BD01BC01083065
:1002A800CF004F08CC00BB01FB01FA012E009916C4
:1002B800080020009A0199019601970198010730DA
:1002C8009500FB309100FF309200BF309300FF3063
:1002D8009400FF303E00D9003F30CE007E30C3008E
:1002E8000730E4007B30B800DA01E5010130C400D2
:1002F8001830B900CF01E601BA01C501D001DB0110
:10030800FF30BB00FF30C600FF30D100FF30DC00FB
:100318000730E70008303D0090001730CB00103060
:100328003E00A600080020003B08203E860087010A
:10033800810122001D1DAB2920003B08203E8600BC
:100348008701811445088A0044080A008131220087
:100358009D1CB92920003B08203E86008701011515
:1003680043088A0042080A00813120003B08203EE9
:100378008600870101080319C72941088A00400837
:100388000A008131080082310A220800F1002000A9
:100398004C080319CB292E00191AD62971082200F6
:1003A8009A00EA2919127108F00020003D08303E31
:1003B80086008701700881000130F0007008BD07D1
:1003C80008303D020318BD010130CC022E00191679
:1003D8000800083020004C020318072A3C08303E69
:1003E80086008701010822009A000130F000700899
:1003F8002000BC0708303C020318BC010130F000A3
:100408007008CC0708002E001912080022001908ED
:10041800F00020003B08283E860087017008810014
:100428000130F0007008BB0708303B020318BB011D
:100438000130F0007008FA0708004D3020009F00D6
:100448001E309D009C012E008C129616353020001F
:10045800CD000230CE0082319C22803020009E00E8
:1004680008007C3080313D2082317108F900700825
:10047800F800780A0319790A031908007808813105
:10048800CA21FC01FD0108008231882282318131B4
:100498005D21823182317F22823182315A2282313A
:1004A80082312122823181311A2108002E000C105C
:1004B8000B14CB302000CD000230CE008231A222B6
:1004C8002E00161408002E008C122000460847043F
:1004D8000319080047088A0046080A008231080004
:1004E80020003E083F04031908003F088A003E0820
:1004F8000A0082310800623031008D008F019101BD
:1005080002309300920108002F009601970198018C
:1005180099019A019B010800640080010131890B4F
:10052800912A00348231482282318B170B179B2A7B
:1005380020004E08C7004D08C600080020004E08DD
:10054800BF004D08BE00080020004E08CB004D0833
:10055800CA00080020004E08C9004D08C80008005D
:1005680020004E08C3004D08C200080020004E08B5
:10057800C5004D08C400080020004E08C1004D0801
:10058800C00008002E000C108231742208000130CF
:10059800FC070030FD3D080022001D121D16080052
:0805A80082310A22080008005C
:020000040001F9
:0A000E00EC3FFF3F9F3FFF3FFF3F25
:00000001FF
